{
  "_format": "hh-sol-artifact-1",
  "contractName": "RitualDeploy",
  "sourceName": "contracts/RitualDeploy.sol",
  "abi": [
    {
      "inputs": [],
      "stateMutability": "nonpayable",
      "type": "constructor"
    },
    {
      "inputs": [],
      "name": "createdAt",
      "outputs": [
        {
          "internalType": "uint256",
          "name": "",
          "type": "uint256"
        }
      ],
      "stateMutability": "view",
      "type": "function"
    },
    {
      "inputs": [],
      "name": "owner",
      "outputs": [
        {
          "internalType": "address",
          "name": "",
          "type": "address"
        }
      ],
      "stateMutability": "view",
      "type": "function"
    }
  ],
  "bytecode": "0x6080604052348015600f57600080fd5b50336000806101000a81548173ffffffffffffffffffffffffffffffffffffffff021916908373ffffffffffffffffffffffffffffffffffffffff16021790555042600181905550610167806100666000396000f3fe608060405234801561001057600080fd5b50600436106100365760003560e01c80638da5cb5b1461003b578063cf09e0d014610059575b600080fd5b610043610077565b60405161005091906100e2565b60405180910390f35b61006161009b565b60405161006e9190610116565b60405180910390f35b60008054906101000a900473ffffffffffffffffffffffffffffffffffffffff1681565b60015481565b600073ffffffffffffffffffffffffffffffffffffffff82169050919050565b60006100cc826100a1565b9050919050565b6100dc816100c1565b82525050565b60006020820190506100f760008301846100d3565b92915050565b6000819050919050565b610110816100fd565b82525050565b600060208201905061012b6000830184610107565b9291505056fea2646970667358221220719a393fdc486c125fe9f0c737d80bedca0653a71917a7692c841aaadd4f5fd164736f6c634300081c0033",
  "linkReferences": {},
  "deployedLinkReferences": {}
}